:020000040800F2
:1000000098060020CD010008F72000081120000804
:10001000F520000887020008F12400080000000015
:10002000000000000000000000000000FB200008AD
:100030008902000800000000F9200008B121000832
:10004000E7010008E7010008E7010008E7010008F0
:10005000E7010008E7010008E7010008E7010008E0
:10006000E7010008E7010008E7010008E7010008D0
:10007000E7010008E7010008E7010008E7010008C0
:10008000E7010008E7010008E7010008E7010008B0
:10009000E7010008E7010008E7010008E7010008A0
:1000A000E7010008E7010008E7010008E701000890
:1000B000E701000899220008AD240008E7010008C4
:1000C000E7010008E7010008E7010008E701000870
:1000D000E7010008D1240008E7010008E701000853
:1000E000E7010008E7010008E7010008E701000850
:1000F000E7010008E7010008E7010008E701000840
:10010000E7010008E7010008E7010008E70100082F
:10011000E7010008E7010008E7010008E70100081F
:10012000E7010008E7010008E7010008E70100080F
:1001300000F002F800F03AF80AA090E8000C8244BF
:100140008344AAF10107DA4501D100F02FF8AFF29C
:10015000090EBAE80F0013F0010F18BFFB1A43F0A5
:10016000010318475445000074450000103A24BFAD
:1001700078C878C1FAD8520724BF30C830C144BF0C
:1001800004680C607047000000230024002500264E
:10019000103A28BF78C1FBD8520728BF30C148BFEA
:1001A0000B6070471FB51FBD10B510BD00F031F8D2
:1001B0001146FFF7F7FF02F0AFFB00F04FF803B472
:1001C000FFF7F2FF03BC00F057F800000948804732
:1001D00009480047FEE7FEE7FEE7FEE7FEE7FEE729
:1001E000FEE7FEE7FEE7FEE704480549054A064B41
:1001F00070470000492200083101000898000020E3
:10020000980600209802002098020020704770474E
:100210007047754600F02CF8AE4605006946534617
:1002200020F00700854618B020B5FFF7DDFFBDE8D8
:1002300020404FF000064FF000074FF000084FF04D
:10024000000B21F00701AC46ACE8C009ACE8C009DE
:10025000ACE8C009ACE8C0098D46704710B504464B
:10026000AFF300802046BDE81040FFF7A8BF0000B4
:10027000004870473800002001491820ABBEFEE757
:10028000260002007047FEE77047002100E0491C8D
:100290008142FCD3704700000748816941F00801A2
:1002A00081610648016821F00F010160016841F099
:1002B000030101607047000000100240040C01407F
:1002C00010B52349886940F04000886121480268E0
:1002D00022F470620260026842F4006202601D4A09
:1002E00004230C3213608B6943F040038B61036875
:1002F00023F470430360036843F40043036013680E
:1003000043F0080313608B6943F004038B61124BC5
:100310001C6824F00F041C601C6844F008041C6076
:100320000D4B14331C6844F001041C608B6943F0CE
:1003300040038B61016821F470210160016841F480
:1003400000210160106840F01000106010BD000036
:100350000010024000180140000801401348816964
:1003600041F00801816112490A6822F470020A60B2
:100370000A6842F440120A600D4910310A6842F0DE
:1003800020020A60816941F04001816109480168E9
:1003900021F470010160016841F4401101600548D9
:1003A0001030016841F020010160704700100240E8
:1003B000000C01400018014000F007000102054A4E
:1003C00010684FF6FF031840034B184308431060B2
:1003D000704700000CED00E00000FA054FF0E0204F
:1003E0000021016102494161032101617047000060
:1003F0008F5F01002DE9F04F85B0804689460024CB
:1004000015460320A0EB4207002B4ED0ABE0A9EB32
:100410000500049081B208EB040A1FFA8AF00E9AD4
:1004200000F0A4F8A9EB040081B208EB05060390E4
:10043000B0B20E9A00F09AF809EB040B1FFA8BF198
:10044000B0B20E9A00F092F809EB0506B1B21FFAAD
:100450008AF00E9A00F08AF8B1B2A8EB0406B0B2A6
:100460000E9A00F083F8A8EB050A1FFA8BF11FFA29
:100470008AF00E9A00F07AF804980E9A81B2B0B21F
:1004800000F074F803980E9A81B21FFA8AF000F017
:100490006DF8641C002F03DA07EB8407BF1D04E02E
:1004A000601B07EB80070A376D1EAC42AFDD05B05D
:1004B000BDE8F08F264648E0A9EB060081B208EBC4
:1004C000040B02901FFA8BF00E9A00F04FF8A9EB84
:1004D000040081B208EB060A01901FFA8AF00E9A16
:1004E00000F044F809EB040081B200901FFA8AF092
:1004F0000E9A00F03BF809EB060A1FFA8AF11FFA80
:100500008BF00E9A00F032F81FFA8AF1A8EB040A79
:100510001FFA8AF00E9A00F029F80098A8EB060B53
:1005200081B21FFA8BF00E9A00F020F802980E9A12
:1005300081B21FFA8AF000F019F801980E9A81B280
:100540001FFA8BF000F012F8761CAE42B4DD641C8A
:10055000002F03DA07EB8407BF1D04E0601B07EBE5
:1005600080070A376D1EAC42A4DDA0E710B5034634
:100570000C464FF4285001F03FFA180A01F048FAEF
:1005800042F6012001F038FAD8B201F041FA4FF4F6
:100590002C5001F031FA200A01F03AFA42F601300B
:1005A00001F02AFAE0B201F033FA4FF4305001F0D2
:1005B00023FABDE81040104601F02ABAF0B506460D
:1005C000059F0D4600244FF4285001F015FA300A1B
:1005D00001F01EFA42F6012001F00EFAF0B201F02D
:1005E00017FA42F6022001F007FA2E44761EC6F3EF
:1005F0000F2001F00DFA42F6032001F0FDF9F0B2F0
:1006000001F006FA4FF42C5001F0F6F9100A01F04F
:10061000FFF942F6013001F0EFF9D0B201F0F8F93C
:1006200042F6023001F0E8F91A44521EC2F30F20DC
:1006300001F0EEF942F6033001F0DEF9D0B201F03C
:10064000E7F94FF4305001F0D7F95D4303E0384645
:1006500001F0DEF9641CA542F9D8F0BD10B546489A
:10066000416941F480714161816941F00801816112
:10067000816941F020018161816941F0400181611E
:10068000816941F4807181613C48016821F00F016A
:100690000160016841F00301016039480168394A8D
:1006A000114001600168384A11430160001F016870
:1006B00001F0FF210160016841F0BB110160334886
:1006C000016800210160026842F0BB320260001F35
:1006D000026822F070420260026842F0304202601A
:1006E0002B48426822F470224260426842F4302271
:1006F0004260026822F00F020260026842F00B02C0
:1007000002604FF020408161C161C0F81C11816915
:1007100041F480518161816941F480418161816945
:1007200041F010018161C169C161C16941F00101FC
:10073000C161C16941F47061C161D0F81C11C0F898
:100740001C11D0F81C11C0F81C11D0F81C1141F478
:100750004071C0F81C11816941F0010181610D48AF
:10076000FFF793FD00F018F804481030016841F0DD
:100770000101016010BD000000100240000C0140AA
:100780000414014000F0FF00BB0B00BB0418014043
:100790000020014020A107002DE9F05F4FF47043D5
:1007A0005521184601F02CF94FF20104AA212046E8
:1007B00001F026F9651C5221284601F021F9A61CFA
:1007C0000821304601F01CF9E71C0121384601F0F0
:1007D00017F90D214FF4304001F012F90D214BF2C1
:1007E000010001F00DF90D214BF2020001F008F9B2
:1007F0004FF436483521404601F002F935214BF2DD
:10080000016001F0FDF835214BF2026001F0F8F8CB
:100810004FF431490D21484601F0F2F84BF2011A2C
:100820000D21504601F0ECF80D214BF2021001F0C1
:10083000E7F84FF4374B3521584601F0E1F8352100
:100840004BF2017001F0DCF835214BF2027001F03F
:10085000D7F800214FF4324001F0D2F800214BF2DA
:10086000012001F0CDF800214BF2022001F0C8F880
:1008700024214FF4384001F0C3F824214BF6010045
:1008800001F0BEF824214BF6020001F0B9F8012175
:100890004FF43F4001F0B4F808214FF4334001F029
:1008A000AFF808214BF2013001F0AAF808214BF211
:1008B000023001F0A5F834214FF4394001F0A0F8DE
:1008C00034214BF6011001F09BF834214BF6021055
:1008D00001F096F824214FF43A4001F091F82421D8
:1008E0004BF6012001F08CF824214BF6022001F098
:1008F00087F800214FF43C4001F082F888214BF644
:10090000014001F07DF800214BF6024001F078F83B
:1009100000214FF43D4001F073F888214BF601505F
:1009200001F06EF800214BF6025001F069F8002149
:100930004FF43E4001F064F8A3214BF6016001F052
:100940005FF800214FF4514001F05AF805214DF2B3
:10095000011001F055F800214DF2021001F050F89D
:1009600040214DF2031001F04BF800214DF204102C
:1009700001F046F860214DF2051001F041F8002128
:100980004DF2061001F03CF890214DF2071001F0F5
:1009900037F800214DF2081001F032F899214DF29C
:1009A000091001F02DF800214DF20A1001F028F88D
:1009B000BB214DF20B1001F023F800214DF20C1079
:1009C00001F01EF8DC214DF20D1001F019F80121A3
:1009D0004DF20E1001F014F804214DF20F1001F049
:1009E0000FF801214DF2101001F00AF825214DF207
:1009F000111001F005F801214DF2121001F000F87C
:100A000059214DF2131000F0FBFF01214DF214109B
:100A100000F0F6FF82214DF2151000F0F1FF0121E8
:100A20004DF2161000F0ECFFC6214DF2171000F049
:100A3000E7FF02214DF2181000F0E2FF01214DF214
:100A4000191000F0DDFF02214DF21A1000F0D8FF5E
:100A500002214DF21B1000F0D3FF02214DF21C10B9
:100A600000F0CEFF39214DF21D1000F0C9FF022128
:100A70004DF21E1000F0C4FF79214DF21F1000F05E
:100A8000BFFF02214DF2201000F0BAFFA1214DF26C
:100A9000211000F0B5FF02214DF2221000F0B0FF4E
:100AA000D9214DF2231000F0ABFF03214DF22410A9
:100AB00000F0A6FF00214DF2251000F0A1FF032158
:100AC0004DF2261000F09CFF38214DF2271000F067
:100AD00097FF03214DF2281000F092FF67214DF29D
:100AE000291000F08DFF03214DF22A1000F088FF3D
:100AF0008F214DF22B1000F083FF03214DF22C10BB
:100B000000F07EFFCD214DF22D1000F079FF032182
:100B10004DF22E1000F074FFFD214DF22F1000F069
:100B20006FFF03214DF2301000F06AFFFE214DF2FD
:100B3000311000F065FF03214DF2321000F060FF2C
:100B4000FF214DF2331000F05BFF00214FF45240C3
:100B500000F056FF05214DF2012000F051FF002169
:100B60004DF2022000F04CFF40214DF2032000F036
:100B700047FF00214DF2042000F042FF6D214DF2AD
:100B8000052000F03DFF00214DF2062000F038FF67
:100B900090214DF2072000F033FF00214DF2082094
:100BA00000F02EFF99214DF2092000F029FF0021CD
:100BB0004DF20A2000F024FFBB214DF20B2000F083
:100BC0001FFF00214DF20C2000F01AFFDC214DF236
:100BD0000D2000F015FF01214DF20E2000F010FF56
:100BE00004214DF20F2000F00BFF01214DF21020E7
:100BF00000F006FF25214DF2112000F001FF012138
:100C00004DF2122000F0FCFE59214DF2132000F0AD
:100C1000F7FE01214DF2142000F0F2FE82214DF288
:100C2000152000F0EDFE01214DF2162000F0E8FE47
:100C3000C6214DF2172000F0E3FE02214DF21820EC
:100C400000F0DEFE01214DF2192000F0D9FE022154
:100C50004DF21A2000F0D4FE02214DF21B2000F0CC
:100C6000CFFE02214DF21C2000F0CAFE39214DF2C8
:100C70001D2000F0C5FE02214DF21E2000F0C0FE36
:100C800079214DF21F2000F0BBFE02214DF2202001
:100C900000F0B6FEA1214DF2212000F0B1FE0221AC
:100CA0004DF2222000F0ACFED9214DF2232000F0BD
:100CB000A7FE03214DF2242000F0A2FE00214DF2F8
:100CC000252000F09DFE03214DF2262000F098FE25
:100CD00038214DF2272000F093FE03214DF2282009
:100CE00000F08EFE67214DF2292000F089FE0321DD
:100CF0004DF22A2000F084FE8F214DF22B2000F0CF
:100D00007FFE03214DF22C2000F07AFECD214DF222
:100D10002D2000F075FE03214DF22E2000F070FE14
:100D2000FD214DF22F2000F06BFE03214DF230200B
:100D300000F066FEFE214DF2312000F061FE03213D
:100D40004DF2322000F05CFEFF214DF2332000F026
:100D500057FE00214FF4534000F052FE05214DF2A2
:100D6000013000F04DFE00214DF2023000F048FE4F
:100D700040214DF2033000F043FE00214DF20430DB
:100D800000F03EFE6D214DF2053000F039FE0021ED
:100D90004DF2063000F034FE90214DF2073000F0A5
:100DA0002FFE00214DF2083000F02AFE99214DF26D
:100DB000093000F025FE00214DF20A3000F020FE3F
:100DC000BB214DF20B3000F01BFE00214DF20C3028
:100DD00000F016FEDC214DF20D3000F011FE012175
:100DE0004DF20E3000F00CFE04214DF20F3000F0F9
:100DF00007FE01214DF2103000F002FE25214DF2D8
:100E0000113000F0FDFD01214DF2123000F0F8FD2F
:100E100059214DF2133000F0F3FD01214DF2143051
:100E200000F0EEFD82214DF2153000F0E9FD0121C8
:100E30004DF2163000F0E4FDC6214DF2173000F0FF
:100E4000DFFD02214DF2183000F0DAFD01214DF2F4
:100E5000193000F0D5FD02214DF21A3000F0D0FD1E
:100E600002214DF21B3000F0CBFD02214DF21C306F
:100E700000F0C6FD39214DF21D3000F0C1FD022108
:100E80004DF21E3000F0BCFD79214DF21F3000F014
:100E9000B7FD02214DF2203000F0B2FDA1214DF24C
:100EA000213000F0ADFD02214DF2223000F0A8FD0E
:100EB000D9214DF2233000F0A3FD03214DF224305F
:100EC00000F09EFD00214DF2253000F099FD032138
:100ED0004DF2263000F094FD38214DF2273000F01D
:100EE0008FFD03214DF2283000F08AFD67214DF27D
:100EF000293000F085FD03214DF22A3000F080FDFD
:100F00008F214DF22B3000F07BFD03214DF22C3070
:100F100000F076FDCD214DF22D3000F071FD032162
:100F20004DF22E3000F06CFDFD214DF22F3000F01F
:100F300067FD03214DF2303000F062FDFE214DF2DD
:100F4000313000F05DFD03214DF2323000F058FDEC
:100F5000FF214DF2333000F053FD00214FF4544097
:100F600000F04EFD05214DF2014000F049FD002149
:100F70004DF2024000F044FD40214DF2034000F0EC
:100F80003FFD00214DF2044000F03AFD6D214DF28D
:100F9000054000F035FD00214DF2064000F030FD27
:100FA00090214DF2074000F02BFD00214DF208404A
:100FB00000F026FD99214DF2094000F021FD0021AD
:100FC0004DF20A4000F01CFDBB214DF20B4000F039
:100FD00017FD00214DF20C4000F012FDDC214DF216
:100FE0000D4000F00DFD01214DF20E4000F008FD16
:100FF00004214DF20F4000F003FD01214DF210409D
:1010000000F0FEFC25214DF2114000F0F9FC012119
:101010004DF2124000F0F4FC59214DF2134000F063
:10102000EFFC01214DF2144000F0EAFC82214DF268
:10103000154000F0E5FC01214DF2164000F0E0FC07
:10104000C6214DF2174000F0DBFC02214DF21840A2
:1010500000F0D6FC01214DF2194000F0D1FC022134
:101060004DF21A4000F0CCFC02214DF21B4000F082
:10107000C7FC02214DF21C4000F0C2FC39214DF2A8
:101080001D4000F0BDFC02214DF21E4000F0B8FCF6
:1010900079214DF21F4000F0B3FC02214DF22040B7
:1010A00000F0AEFCA1214DF2214000F0A9FC02218C
:1010B0004DF2224000F0A4FCD9214DF2234000F073
:1010C0009FFC03214DF2244000F09AFC00214DF2D8
:1010D000254000F095FC03214DF2264000F090FCE5
:1010E00038214DF2274000F08BFC03214DF22840BF
:1010F00000F086FC67214DF2294000F081FC0321BD
:101100004DF22A4000F07CFC8F214DF22B4000F084
:1011100077FC03214DF22C4000F072FCCD214DF202
:101120002D4000F06DFC03214DF22E4000F068FCD4
:10113000FD214DF22F4000F063FC03214DF23040C1
:1011400000F05EFCFE214DF2314000F059FC03211D
:101150004DF2324000F054FCFF214DF2334000F0DC
:101160004FFC00214FF4554000F04AFC05214DF2A0
:10117000015000F045FC00214DF2025000F040FC0F
:1011800040214DF2035000F03BFC00214DF2045091
:1011900000F036FC6D214DF2055000F031FC0021CD
:1011A0004DF2065000F02CFC90214DF2075000F05B
:1011B00027FC00214DF2085000F022FC99214DF24D
:1011C000095000F01DFC00214DF20A5000F018FCFF
:1011D000BB214DF20B5000F013FC00214DF20C50DE
:1011E00000F00EFCDC214DF20D5000F009FC002156
:1011F0004DF20E5000F004FC04214DF20F5000F0AF
:10120000FFFB01214DF2105000F0FAFB25214DF2B9
:10121000115000F0F5FB01214DF2125000F0F0FBEF
:1012200059214DF2135000F0EBFB01214DF2145007
:1012300000F0E6FB82214DF2155000F0E1FB0121A8
:101240004DF2165000F0DCFBC6214DF2175000F0B5
:10125000D7FB02214DF2185000F0D2FB01214DF2D4
:10126000195000F0CDFB02214DF21A5000F0C8FBDE
:1012700002214DF21B5000F0C3FB02214DF21C5025
:1012800000F0BEFB39214DF21D5000F0B9FB0221E8
:101290004DF21E5000F0B4FB79214DF21F5000F0CA
:1012A000AFFB02214DF2205000F0AAFBA1214DF22C
:1012B000215000F0A5FB02214DF2225000F0A0FBCE
:1012C000D9214DF2235000F09BFB03214DF2245015
:1012D00000F096FB00214DF2255000F091FB032118
:1012E0004DF2265000F08CFB38214DF2275000F0D3
:1012F00087FB03214DF2285000F082FB67214DF25D
:10130000295000F07DFB03214DF22A5000F078FBBC
:101310008F214DF22B5000F073FB03214DF22C5026
:1013200000F06EFBCD214DF22D5000F069FB032142
:101330004DF22E5000F064FBFD214DF22F5000F0D5
:101340005FFB03214DF2305000F05AFBFE214DF2BD
:10135000315000F055FB03214DF2325000F050FBAC
:10136000FF214DF2335000F04BFB00214FF456406B
:1013700000F046FB05214DF2016000F041FB002129
:101380004DF2026000F03CFB40214DF2036000F0A2
:1013900037FB00214DF2046000F032FB6D214DF26D
:1013A000056000F02DFB00214DF2066000F028FBE7
:1013B00090214DF2076000F023FB00214DF2086000
:1013C00000F01EFB99214DF2096000F019FB00218D
:1013D0004DF20A6000F014FBBB214DF20B6000F0EF
:1013E0000FFB00214DF20C6000F00AFBDC214DF2F6
:1013F0000D6000F005FB01214DF20E6000F000FBD6
:1014000004214DF20F6000F0FBFA01214DF2106053
:1014100000F0F6FA25214DF2116000F0F1FA0121F9
:101420004DF2126000F0ECFA59214DF2136000F019
:10143000E7FA01214DF2146000F0E2FA82214DF248
:10144000156000F0DDFA01214DF2166000F0D8FAC7
:10145000C6214DF2176000F0D3FA02214DF2186058
:1014600000F0CEFA01214DF2196000F0C9FA022114
:101470004DF21A6000F0C4FA02214DF21B6000F038
:10148000BFFA02214DF21C6000F0BAFA39214DF288
:101490001D6000F0B5FA02214DF21E6000F0B0FAB6
:1014A00079214DF21F6000F0ABFA02214DF220606D
:1014B00000F0A6FAA1214DF2216000F0A1FA02216C
:1014C0004DF2226000F09CFAD9214DF2236000F029
:1014D00097FA03214DF2246000F092FA00214DF2B8
:1014E000256000F08DFA03214DF2266000F088FAA5
:1014F00038214DF2276000F083FA03214DF2286075
:1015000000F07EFA67214DF2296000F079FA03219C
:101510004DF22A6000F074FA8F214DF22B6000F03A
:101520006FFA03214DF22C6000F06AFACD214DF2E2
:101530002D6000F065FA03214DF22E6000F060FA94
:10154000FD214DF22F6000F05BFA03214DF2306077
:1015500000F056FAFE214DF2316000F051FA0321FD
:101560004DF2326000F04CFAFF214DF2336000F092
:1015700047FA5521184600F043FAAA21204600F008
:101580003FFA5221284600F03BFA0821304600F08D
:1015900037FA0021384600F033FACC21484600F0F3
:1015A0002FFA0021504600F02BFA0521404600F0AA
:1015B00027FA7021584600F023FA70214BF201708F
:1015C00000F01EFA01214FF4384000F019FA05210D
:1015D0004BF6010000F014FA05214BF6020000F072
:1015E0000FFA05214BF6030000F00AFA00214FF430
:1015F0003C4000F005FA00214BF6014000F000FAF3
:1016000000214BF6024000F0FBF9D0214FF4494095
:1016100000F0F6F982214CF6011000F0F1F95021AA
:101620004CF6021000F0ECF950214CF6031000F0DB
:10163000E7F950214CF6041000F0E2F955214FF47F
:10164000685000F0DDF94FF4885000F0D5F90448F7
:10165000FEF71BFEBDE8F05F4FF4245000F0CCB95C
:10166000C0D40100F0B506460F4614461D46002CB6
:1016700004D12A463946304600F0DBF9012C04D16A
:101680002A463946304600F005FA022C04D12A4693
:101690003946304600F012FA032C04D12A46394666
:1016A000304600F036FA042C04D12A46394630463A
:1016B00000F05AFA052C04D12A463946304600F08B
:1016C00076FA062C04D12A463946304600F09AFABA
:1016D000072C04D12A463946304600F0C4FA082CBB
:1016E00004D12A463946304600F0DAFA092C06D1F0
:1016F0002A4639463046BDE8F04000F00ABBF0BD4E
:10170000F0B50446059E0D464FF4285000F074F9DC
:10171000200A00F07DF942F6012000F06DF9E0B2F8
:1017200000F076F942F6022000F066F9E41D200A86
:1017300000F06EF942F6032000F05EF9E0B200F02E
:1017400067F94FF42C5000F057F9280A00F060F9BF
:1017500042F6013000F050F9E8B200F059F942F6D3
:10176000023000F049F90F35280A00F051F942F62D
:10177000033000F041F9E8B200F04AF94FF430507C
:1017800000F03AF9203A602A2DD2D0B2002416494E
:1017900001EB00150022C4F10707A85CF840C00760
:1017A00003D0184600F034F902E0304600F030F97A
:1017B000921C102AF1D3641C082CEBD300240122C4
:1017C000C4F10707A85CF840C00703D0184600F032
:1017D0001FF902E0304600F01BF9921C102AF1D3E9
:1017E000641C082CEBD3F0BD6A3300082DE9F04FE0
:1017F0000546DDF824A00C4618264FF00C08203AC8
:10180000602A6BD202F0FF0B4FF4285000F0F4F87E
:10181000280A00F0FDF842F6012000F0EDF8E8B2E9
:1018200000F0F6F842F6022000F0E6F80B35C5F3BA
:101830000F2000F0EDF842F6032000F0DDF8E8B2EA
:1018400000F0E6F84FF42C5000F0D6F8200A00F033
:10185000DFF842F6013000F0CFF8E0B200F0D8F83F
:1018600042F6023000F0C8F81734C4F30F2000F03D
:10187000CFF842F6033000F0BFF8E0B200F0C8F84D
:101880004FF4305000F0B8F8002524E0002414494B
:101890000BEBCB0001EB80074FF0030915E00022B2
:1018A0000FE002EB42002844385CA040000603D55C
:1018B000184600F0ADF802E0504600F0A9F8521CBE
:1018C000D2B24245EDD3641CE4B2B6FBF9F0A042BB
:1018D000E5D86D1CEDB2B5EBD60FD7D3BDE8F08FD0
:1018E0005A3900082DE9F8430546DDE908860F4618
:1018F0001C46002A0CD0012A17D0BDE8F8834346C5
:10190000394628460096FFF7FBFE0835ADB2641C49
:101910002278002AF3D1F0E743463946284600965C
:10192000FFF764FF0C35ADB2641C2278002AF3D1B6
:10193000E3E700007CB51F204FF6FF74CDE90040BF
:1019400016A3012278215A20FFF7CCFF1A4E304609
:10195000FEF79BFC4FF4784518A30022F0216E207F
:10196000CDE90045FFF7BEFF3046FEF78EFC19A318
:1019700000224FF48C716E20CDE90045FFF7B2FFD5
:101980003046FEF782FC17A300224FF4A0716E20B0
:10199000CDE90045FFF7A6FF7CBD000057656C63ED
:1019A0006F6D6520746F206D696E692050726F6A6B
:1019B0006563742100000000FFFF3F0054686973F5
:1019C000206973207468652046696E616C204C61E3
:1019D000622E000041726520796F75207265616426
:1019E000793F00004F4B21204C657427732073749E
:1019F0006172742E000000004FF0D84108807047DB
:101A00004FF0D84210800148018070470008006CF8
:101A100001490880704700000008006C08B50022EA
:101A200000904FF448734FF4F0711046FEF7C6FD76
:101A300008BD2DE9F04106460C469046A4F141014F
:101A40000F4689B24246304600F09CF9A4F182016B
:101A50000D4689B24246304600F094F9A9B206F12B
:101A60004105A8B2424600F08DF9B9B2A8B242468B
:101A700000F088F9A4F10A0081B20A36B0B24246F9
:101A800000F078F98C3CA1B2B0B24246BDE8F0411A
:101A900000F070B970B50C4616464130A4F18201D1
:101AA000054689B280B2324600F06CF9413CA1B2E1
:101AB000A8B23246BDE8704000F064B970B5054682
:101AC0000C461646A4F1410081B23246284600F089
:101AD00059F9A4F1820081B205F1410080B2324689
:101AE00000F050F9A4F10A0081B20A35A8B23246DA
:101AF00000F040F9A4F14B0081B2A8B2324600F0E8
:101B000039F98C3CA1B2A8B23246BDE8704000F071
:101B100031B9F0B505460C461746A4F1820081B2F2
:101B200005F14106B0B23A4600F02CF9A4F14100AB
:101B300081B2B0B23A4600F025F9A4F10A0081B2B0
:101B40000A35A8B23A4600F015F9A4F14B0081B26B
:101B5000A8B23A4600F00EF98C3CA1B2A8B23A46BF
:101B6000BDE8F04000F006B9F0B506460C46174651
:101B7000A4F182010D4689B23A46304600F002F9DE
:101B8000A9B206F14105A8B23A4600F0FBF8A4F16B
:101B9000410081B2A8B23A4600F0F4F84B3C0A3654
:101BA000A1B2B0B23A46BDE8F04000F0E3B870B57B
:101BB00005460C461646A4F1820081B232462846FC
:101BC00000F0E0F8A4F1410081B205F1410080B2DB
:101BD000324600F0D7F8A4F10A0081B20A35A8B263
:101BE000324600F0C7F8A4F14B0081B2A8B23246E9
:101BF00000F0C0F88C3CA1B2A8B23246BDE87040FB
:101C000000F0B8B8F0B505460C461746A4F14101FE
:101C10000E4689B23A46284600F0B4F8A4F1820094
:101C200081B23A46284600F0ADF805F14100B1B264
:101C300080B23A4600F0A6F8A4F10A0081B20A3553
:101C4000A8B23A4600F096F8A4F14B0081B2A8B2CF
:101C50003A4600F08FF88C3CA1B2A8B23A46BDE8F3
:101C6000F04000F087B8F0B506460C461746A4F1E0
:101C7000820081B206F14105A8B23A4600F082F82E
:101C8000A4F1410081B2A8B23A4600F07BF88C3C46
:101C90000A36A1B2B0B23A46BDE8F04000F06AB8E8
:101CA0002DE9F04105460C461746A4F1410188464E
:101CB00089B23A46284600F065F8A4F182010E4642
:101CC00089B23A46284600F05DF8B1B205F1410606
:101CD000B0B23A4600F056F81FFA88F1B0B23A4670
:101CE00000F050F8A4F10A0081B20A35A8B23A46D1
:101CF00000F040F8A4F14B0081B2A8B23A4600F0DF
:101D000039F88C3CA1B2A8B23A46BDE8F04100F0E7
:101D100031B8F0B505460C461746A4F182010E46CF
:101D200089B23A46284600F02DF8B1B205F14106D5
:101D3000B0B23A4600F026F8A4F1410081B2B0B248
:101D40003A4600F01FF8A4F10A0081B20A35A8B2A1
:101D50003A4600F00FF8A4F14B0081B2A8B23A461F
:101D600000F008F88C3CA1B2A8B23A46BDE8F040B9
:101D7000AFF3008008B50A2300920A463721FEF728
:101D80001DFC08BD08B5372300920A460A21FEF75C
:101D900015FC08BD70B50446080101F099F9054627
:101DA0002248604301F094F9294601F0AFF8054656
:101DB000284601F06DF984B2204601F089F92946E0
:101DC00001F0E4F9042101F092FA01F061F94FF613
:101DD000FF7101EA04110A181548816941F00401F4
:101DE000816114490B6823F47F630B600B6843F433
:101DF0000B630B60C16841F48041C160C16821F48C
:101E00008041C1600C480280001D42F2080101803F
:101E1000018841F004010180018841F02001018026
:101E2000018841F02401018070BD000040420F0094
:101E30000010024004080140083801400723002038
:101E40001F490A6842F480320A600A68520CD207BD
:101E5000FBD04A6822F400324A604A6842F4803279
:101E60004A604A6842EA83424A600A6842F08072E5
:101E70000A600A68520EFCD04A6822F001024A60E9
:101E80004A6842F002024A6003E04868800800F0B5
:101E900003000228F9D1486820F47C704860486843
:101EA00040F480604860074A32201060C86940F4FE
:101EB0000030C861886940F4804088617047000044
:101EC00000100240002002407CB54FF6FF7420460F
:101ED000FFF7A4FD4FF47845782129A30022084696
:101EE000CDE90045FFF7FEFC2EA30022F02178206B
:101EF000CDE90045FFF7F6FC1F252FA30022A02106
:101F00007820CDE90045FFF7EDFCCDE900542CA386
:101F10000022B4217820FFF7E5FC002600F0D4FC75
:101F2000012804D000F0EEFC012802D011E0304678
:101F30007CBD21A30022A0217820CDE90045FFF738
:101F4000D1FCCDE900541EA30022B4217820FFF774
:101F5000C9FC00F0C3FC0128E0D10126CDE9005402
:101F600015A30022A0217820FFF7BCFC14A30022B7
:101F7000B4217820CDE90045FFF7B4FCCEE700009E
:101F8000506C656173652073656C6563742074685B
:101F90006520646966666963756C7479206C657622
:101FA000656C00005072657373204B455930207486
:101FB0006F20656E746572004561737900000000E2
:101FC00048617264000000001CB54FF6FF742046A3
:101FD000FFF724FD4FF47841CDE9004103A300222F
:101FE000A0217820FFF77EFC1CBD00005573652002
:101FF000555341525420666F7220612072616E64A5
:102000006F6D20646972656374696F6E0000000013
:10201000FEE700001348816941F008018161816990
:1020200041F0200181611048016821F47F41016085
:10203000016841F4605101600B480830016841F4C7
:10204000406101600948016821F470410160016844
:1020500041F44051016005480C30016841F008012D
:102060000160704700100240040C01400014014060
:10207000F8B500200090194C206840F40060206002
:102080005020FEF702F9206840F000602060002434
:10209000124E134D083E9DF8000040080090306835
:1020A000800AC00704D19DF8000040F08000009035
:1020B000286840F0080028605020FEF7E6F82868FD
:1020C00040F4002028605020FEF7DFF8641CE4B2E2
:1020D000082CE0D39DF80000F8BD0000100C014072
:1020E000101401400248016841F02001016070476E
:1020F000140C0140FEE7704770477047AFF3008053
:102100000CB50022019200922748016841F4803109
:1021100001604FF4A063016801F40031009101995E
:10212000491C0191009911B901999942F3D10168B3
:10213000890302D50121009100E000920099012954
:1021400030D11A490A6842F010020A600A6822F087
:1021500003020A600A6842F002020A6041684160B4
:1021600041684160416841F480614160416821F407
:102170007C114160416841F4E8114160016841F01F
:102180008071016001688901FCD5416821F003017B
:102190004160416841F0020141604168C1F3810141
:1021A0000229FAD10CBD00000010024000200240BC
:1021B0001E480078002829D000201D4909780129EF
:1021C00026D0002210401B4A12781AB3002318426E
:1021D0000BD0194803785B1C0370184B1878401C0F
:1021E0001870174803785B1C0370164B1878401C56
:1021F000C0B21870012900D000216AB1002211403C
:10220000421C1A700A2809D3012008E00120D4E7F3
:102210000122D7E70123DAE70122F0E7002001429B
:1022200003D00120187000F065B970470600002047
:102230002B000020050000202C0000202D00002095
:102240002E0000202F00002010B50F48016841F03B
:102250000101016041680D4A1140416001680C4A6A
:1022600011400160016821F480210160416821F47E
:10227000FE0141604FF41F018160FFF73FFF0549F8
:102280004FF00060086010BD001002400000FFF831
:10229000FFFFF6FE08ED00E01CB5FFF7E9FE019038
:1022A0009DF804004FF6FF74C0070AD02046FFF7E0
:1022B000B5FB00232122194618460094FFF720FAA7
:1022C0001CBD9DF8040080070AD52046FFF7A6FB39
:1022D00000232222194618460094FFF711FA1CBD6C
:1022E0009DF8040040072DD52046FFF797FB0023FB
:1022F0003322194618460094FFF702FA00232522DC
:10230000194608200094FFF7FBF900232C221946F8
:1023100010200094FFF7F4F9002325221946182015
:102320000094FFF7EDF900232322194620200094A2
:10233000FFF7E6F900233422194628200094FFF71E
:10234000DFF91CBD9DF80400000726D52046FFF7E5
:1023500065FB00233322194618460094FFF7D0F995
:1023600000233422194608200094FFF7C9F90023FE
:102370002122194610200094FFF7C2F900233222CF
:10238000194618200094FFF7BBF9002334221946A0
:1023900020200094FFF7B4F91CBD9DF80400C0068E
:1023A00011D52046FFF73AFB00233522194618467F
:1023B0000094FFF7A5F90023302219460820009465
:1023C000FFF79EF91CBD9DF8040080061FD520462E
:1023D000FFF724FB00232422194618460094FFF738
:1023E0008FF900232F22194608200094FFF788F95F
:1023F00000233722194610200094FFF781F90023AB
:102400002E22194618200094FFF77AF91CBD9DF87A
:10241000040040061FD52046FFF700FB00232C22B6
:10242000194618460094FFF76BF900232522194638
:1024300008200094FFF764F9002326221946102093
:102440000094FFF75DF90023342219461820009408
:10245000FFF756F91CBD9DF80400C009FAD02046CC
:10246000FFF7DCFA00233222194618460094FFF7E2
:1024700047F900232922194608200094FFF740F964
:1024800000232722194610200094FFF739F9002372
:102490002822194618200094FFF732F9002334222D
:1024A000194620200094FFF72BF91CBD064801882F
:1024B000C90704D005490A6882F020020A60018831
:1024C00021F0010101807047100800400C18014004
:1024D00005480088800606D50348001D008803498A
:1024E0000860FFF7FFBD7047003801403000002052
:1024F000FEE7000070B5184C01260025A07A0028E0
:1025000009D100F0EBF9012803D0FFF7B1FD000776
:1025100001D5A07910B1A07A18B10FE0A671A6720A
:102520000CE000F0DBF9012803D0FFF7A1FD000764
:1025300004D5A079012801D1A571A672A07A00283E
:1025400009D000F0CBF9002805D1FFF791FDC008B4
:10255000C00700D1A57270BD0000002070B5042234
:1025600001231649002801D10A624B620324022587
:10257000012801D10C624D62022801D10D624C622A
:10258000032801D10B624A62042802D1461F0E6261
:102590004A62052802D1C21F0A624C62062803D192
:1025A0006FF002020A624D62072803D16FF0030048
:1025B00008624B62486A4042486270BD00000020D9
:1025C0002DE9FC4704460E462C48818B3C20B1FB8C
:1025D000F0F2B1FBF0F300FB13100A23B2FBF3F1AE
:1025E000B2FBF3F503FB1528B0FBF3F7B0FBF3F2F6
:1025F00003FB120930314FF6FF75CAB21F23314673
:1026000020460095FFF77CF808F1300804F1080037
:1026100008F0FF0280B21F2331460095FFF770F8E3
:102620004FF01F08CDE9008504F1100080B214A31B
:1026300000223146FFF756F9303704F12800FAB28C
:1026400080B21F2331460095FFF75AF809F130098F
:1026500004F1300009F0FF0280B21F2331460095DB
:10266000FFF74EF8CDE900853834A0B205A300226B
:102670003146FFF737F9BDE8FC8700000000002075
:102680006D696E007300000008B5012300900348D7
:102690000279C18A808AFDF7ADFE08BD00000020E6
:1026A000F8B504461B4D4FF4F076AA89298BA2EBAE
:1026B000510000280CDD02EB5102B24208D2009416
:1026C000EA89AB7880B2A2EB530292B2FDF776FFB3
:1026D000A889298BA0EB5100002808D50094E8892F
:1026E000AB78A0EB530082B20020FDF767FFA8890A
:1026F000298B00EB5100B0420AD90094E889AB78ED
:10270000A0EB530082B2C1F5F07080B2FDF756FF26
:10271000F8BD000000000020F8B504461B4D4FF442
:10272000F0762A8A698BA2EB510000280CDD02EBBF
:102730005102B24208D200946A8AEB7880B2A2EBCE
:10274000530292B2FDF73AFF288A698BA0EB510041
:10275000002808D50094688AEB78A0EB530082B279
:102760000020FDF72BFF288A698B00EB5100B04257
:102770000AD90094688AEB78A0EB530082B2C1F5C5
:10278000F07080B2FDF71AFFF8BD000000000020D5
:1027900070B5144C636A002B01DA002070BDA08A6A
:1027A000216A228B0844A189A1EB5205A84216DBBD
:1027B00001EB5201884212DCE189A278E08AA1EBA8
:1027C000520122791844891A884208DBE079401CBA
:1027D000E07100F003FB00F045F9012070BD00201E
:1027E00070BD00000000002070B5144C636A002B1F
:1027F00001DD002070BDA08A216A628B0844218A15
:10280000A1EB5205A84216DB01EB5201884212DC13
:10281000618AE278E08A01EB52012279184411447E
:10282000884208DCE079401CE07100F0D7FA00F043
:1028300019F9012070BD002070BD000000000020CB
:1028400010B50648818A026A00791144814203DC8E
:1028500000F008F9012010BD002010BD000000208C
:102860000748C18A426A11440279C2F5487291420E
:1028700003DB002101720120704700207047000037
:102880000000002010B50748818A026A00791144CF
:10289000C0F5F070814203DB00F0E4F8012010BDC8
:1028A000002010BD000000200648C18A426A114481
:1028B0000279914203DC012101720120704700205E
:1028C000704700000000002003480068C00601D4E3
:1028D0000120704700207047081801400348006835
:1028E000000701D4012070470020704708180140FC
:1028F00003480068400701D401207047002070475A
:102900000818014003480068C00701D00120704743
:1029100000207047080801404149F02008804149E3
:1029200040F202300880FFF789FA0520FDF744FDE8
:10293000FFF770FBFDF752FDFDF790FE4FF6FF76B7
:102940003046FFF76BF8FDF7BBFCFDF707FDFDF721
:10295000A3FCFEF7EFFF3448FDF797FCFFF7B4FA4E
:1029600032490860324D012802D128784008287089
:10297000FFF72AFB00F0B6F92E48FDF786FC00F0C1
:10298000EFF92D48012404702C4F00203870304698
:10299000FFF744F80020FFF783FE0020FFF7BCFE9E
:1029A0004FF4967B64215846FFF70AFE00F016FAB2
:1029B000DFF88C80DFF88C90DFF88CA0234E28E0C5
:1029C000387830BB224998F800000978884203D350
:1029D00088F8004000F056F899F8000029788842FD
:1029E00007D389F800401B4801681B48006800F0C5
:1029F000D3F89AF8000064280BD38AF800401748EF
:102A00000188491C018064215846FFF7D9FD14480C
:102A1000047030780028D3D0347000F019F9FEE744
:102A20001400002016000020FFFF1F0034000020CB
:102A300029000020FFFF7F002B000020060000205F
:102A40002D0000202C0000202E000020050000207A
:102A50002A00002024000020200000201C0000206C
:102A60002800002010B505484FF480740460044825
:102A7000FDF70BFC0148001D046010BD100C014067
:102A8000FFFF0F0010B5FFF733FF114C012803D1F2
:102A90000121207800F01EF8FFF716FF012803D16E
:102AA0000021207800F016F8FFF7E2FA402803D161
:102AB0000121607800F046F8FFF7DAFA802805D1A6
:102AC0006078BDE81040002100F03CB810BD000067
:102AD000000000202DE9F04104460D46FFF708FFF5
:102AE000174E4FF6FF7701280FD1012D0DD1B08978
:102AF000318BB0EB510F08D33846FFF7D1FDB089C9
:102B0000001BB0810020FFF7CBFDFFF7DDFE0128A1
:102B100014D1002D12D1308B4FF4F071A1EB500085
:102B2000B18988420ADB3846FFF7BAFDB0892044F4
:102B3000B081BDE8F0410020FFF7B2BDBDE8F081F3
:102B4000000000202DE9F04104460D46114E4FF6DD
:102B5000FF77012D0AD1308A718BB0EB510F05D36D
:102B60003846FFF7D9FD308A001B30826DB9708B73
:102B70004FF4F071A1EB5000318A884205DB3846F2
:102B8000FFF7CAFD308A20443082BDE8F0410020C2
:102B9000FFF7C2BD000000202DE9F8432B4CA78AA7
:102BA000B4F81680607901284ED000266672FFF7CF
:102BB000EFFD012518B1606A404260626572FFF75F
:102BC00013FE18B1606A404260626572FFF738FE1A
:102BD00010B1206A40422062FFF754FE10B1206A13
:102BE00040422062FFF760FE012806D1FFF7FCFD9E
:102BF00018B96571257226626662FFF731FE0128F9
:102C000006D1FFF7C5FD18B96571267226626662A6
:102C10004FF6FF7000900123227941463846FDF7B8
:102C2000E9FBA08A218C0844A082E08AA18C084498
:102C3000E0820020FFF728FD0020FFF731FDBDE80E
:102C4000F8430020FFF768BDBDE8F88300000020CE
:102C50002DE9FC411C4E7079002832D04FF6FF70F0
:102C6000FEF7DCFE1948FDF710FB4FF6E0741F2558
:102C7000CDE900544FF4C27715A3012239467820DC
:102C8000FEF730FE307A012813D01F234222394646
:102C9000C0200094FEF7AAFDCDE900540EA3012246
:102CA0003946CC20FEF71EFEBDE8FC410C48FDF77E
:102CB000ECBA1F2341223946C0200094FEF796FD4E
:102CC000EAE7BDE8FC810000000000208096980043
:102CD000506C6179657220002077696E7300000086
:102CE00080F0FA022DE9FC4144F638214820FFF734
:102CF00051F8144C01E0FFF7EBFB20686428FAD090
:102D00004FF6FF763046FEF789FE0025CDE90065D7
:102D10004FF4C8770CA32A463946C820FEF7E2FDD7
:102D20000095207833463030C2B239464FF4AC704B
:102D3000FEF7E6FC0948FDF7A8FA2078BDE8FC415B
:102D4000FFF70CBC30000020546865206469726590
:102D50006374696F6E2069733A200000FFFF3F00C3
:102D600070B54FF6FF742046FEF758FE4FF4EB7532
:102D70001F2303222946CB20FEF774FC164E304653
:102D8000FDF783FA2046FEF749FE1F23022229465B
:102D9000CB20FEF767FC3046FDF777FA2046FEF7BA
:102DA0003DFE1F2301222946CB20FEF75BFC304667
:102DB000FDF76BFA2046FEF731FE1F23002229465D
:102DC000CB20FEF74FFC3046FDF75FFA2046BDE80A
:102DD0007040FEF723BE0000809698007CB5144832
:102DE000C1790A20B1FBF0F5B1FBF0F200FB12163D
:102DF0004FF6FF741F20CDE900040EA300225021DE
:102E00004FF49870FEF76EFD3035EAB21F23502163
:102E10004FF4B4700094FEF773FC3036F2B21F2307
:102E200050214FF4B8700094FEF76AFC7CBD00009E
:102E300000000020426F756E63653A0090EA010F52
:102E400048BF81F0004100F1B281421A3CBF801AB4
:102E500089184FEAD0524FF07F4C1CEA410FA2EB89
:102E6000D15318BF9CEA026F00F03B804FF0004C3A
:102E70004CEA00204CEA012121FA03FC10EB0C0C77
:102E80001ED202F1FF325FEA1C2040EBC25038BF75
:102E900070471CF07F0F4FEA400C18BFBCF17F4F0A
:102EA00038BF7047C3F12003994008BF20F00100EC
:102EB000BCF17F4F38BF7047A0F1C04000F061B94E
:102EC0004FEA3C00000A40EBC25028BF1CF0FF0F45
:102ED0004FEA400CE6D018BFBCF17F4F38BF7047B7
:102EE000EAE79CEA026F05D010EA5C0F08BF00F029
:102EF0000040704710B500F0FEF800BF64FBBE3E16
:102F0000014800F0C2B900BF0000C07F4FF47F0C41
:102F10001CEAD0121EBF1CEAD11392EA0C0F93EAEE
:102F20000C0F00F0858090EA010F48BF42F48072D8
:102F300040F4000C41F400002CF07F4120F07F4071
:102F400000B58142A2EB03020FF2081CACEB504E1D
:102F5000C0F100009EF800E04FEA4E0E00FB0EFCB0
:102F600038BF49004FEA2C1C02F5FA020CFB0EF3A5
:102F70004FEACE1E4FEA112C4FEAC1210EEB635EE1
:102F800042EB22420EFB0CFC4FEA1C5300FB0311E8
:102F90004FEA112C4FEA01310EFB0CFC4FEADC4CDE
:102FA00000FB0C11C14228BF09184CEB03335DF83C
:102FB00004EB10EB410143EBC250B2F57C0F38BF7C
:102FC000704729D512F0F00F1CBF00F1C04000F08F
:102FD00000407047008182838485868788898B8C36
:102FE0008D8E8F919293959697999A9C9D9FA0A272
:102FF000A3A5A7A8AAACAEB0B2B3B5B7B9BCBEC0C2
:10300000C2C5C7C9CCCED1D4D7D9DCDFE2E6E9EC62
:10301000F0F3F7FAFE0000004FEA400C0CF1807C60
:10302000BCF17E4F28BF7047B0F1C04000F0A9B896
:1030300090EA010F0CEAD11348BF42F48072624556
:1030400038BF634507D213F47F0F16D080EA010022
:1030500000F00040704710B500F04DF8097EFC3ECE
:1030600000F005B880EA010000F00040704780EAF7
:10307000010000F0004000F084B812F47F0F04BF9C
:103080000248704780EA010000F07BB80000C07F72
:10309000C10DD1F19E0206DB4FEA002343F000434D
:1030A00023FA02F07047004207D54FEA4001B1F120
:1030B000FE4F02D24FF00000704710B500F01BF831
:1030C00049922480002070476FEA2000704700007A
:1030D000B0FA80F310FA03F2C3F19D030AD0D905C8
:1030E00001EB1220530638BF704700F1010008BF02
:1030F00020F0010070470EF1020E2EF0030E5EF874
:10310000044B244204D44FEA4102B2F17F4F11D85C
:103110004FEA4003B3F17F4F0CD80ED14FEAD07C79
:10312000B2F17F4F0CEB4C0C0CF1020C08BF4CEBD6
:10313000D17C04E04FF0080C01E04FEAD17C0CEBAD
:103140004C0324FA03F404F00704B4F1040C06D28F
:103150000EEB840CBDE810404CF0010C6047DFE83A
:103160000CF0070802024FF00040A0F5800010BDEF
:103170000846420018BFD2F1807288BF00F00040BC
:1031800010BDFF2141EAD050C005704780F00040DB
:1031900090EA010F7FF559AE81F0004100F007B8C9
:1031A00090EA010F48BF81F000413FF54EAE421A50
:1031B00004D882F00042A0EB020011444FEAD05242
:1031C0004FF07F4C1CEA410FA2EBD15318BF9CEA91
:1031D000026F4AD04FF0004C4CEA00204CEA01212B
:1031E00021FA03FCB0EB0C0C0FD412F0FE0F36D01A
:1031F0005FEA4C001DD5001240EBC25038BF70474B
:103200001CF03F0F18BF70470BE0A2F101025FEA0C
:103210001C2040EBC25038BF70471CF07F0F18BF16
:103220007047C3F12003994014BF401E20F00100F5
:10323000704780084FEA122308BF7047B0FA80FC3D
:10324000A2EB0C02CCF1280C60FA0CF093EA122FDE
:1032500004BF00EBC25070474FEAC3707047130AB7
:103260005FEADC1008BF7047F6E79CEA026F04D003
:1032700010EA5C0F08BF0020704710B5FFF73BFF56
:1032800040DFF63E81F0004070470CF00F03092B41
:1032900008BF082000F051800A2B0BD0082B18BF64
:1032A000704708BF1CF0400F0AD04FF000004FF0ED
:1032B000000170471CF0400F18BF4FF000407047EE
:1032C0001CF0100F08D020F0704300F07F4242EA5B
:1032D000D3014FEA4370704700F0604021F07F4215
:1032E00042EA000201F07F4040EA727070474FF0FE
:1032F000FF0212EAD0521CBF92F0FF038B42C2BF02
:10330000D14200EBC1507047002A0AD0002B0BD0ED
:10331000002900F00040A4BF40F0FE4040F400004F
:10332000704700F00040704743024FF00B0C18BF8D
:103330004CF0806C7FF4E4AD70471CF4801F11D01A
:103340001CF4E02F03D06FEACC31490070474FF0F6
:103350004050EFF3008222F0704242EA000282F312
:10336000008870474FF00000704700000000000028
:10337000000000000000000000000000000000004D
:103380001FCC000C0000000000000000080030000E
:1033900060000800300060000000022003FC1E20D6
:1033A000022003FC1E200220000000000E18110461
:1033B0003FFF10840C78000000000F0010840F38CD
:1033C00000C0077818840078000000780F8410C4CB
:1033D00011240E9800E400840008080068007000C2
:1033E00000000000000000000000000000000000DD
:1033F00007E01818200440020000000040022004EA
:10340000181807E0000000000000024002400180A0
:103410000FF0018002400240000000800080008028
:103420000FF800800080008000000001000D000EF9
:10343000000000000000000000000000008000808C
:10344000008000800080008000800000000C000CE4
:10345000000000000000000000000000000600184E
:1034600000600180060018002000000007F0080836
:1034700010041004080807F0000000000804080405
:103480001FFC000400040000000000000E0C1014DB
:103490001024104411840E0C000000000C181004BD
:1034A0001104110412880C700000000000E00320D9
:1034B000042408241FFC0024000000001F9810842E
:1034C00011041104108810700000000007F0088833
:1034D0001104110418880070000000001C00100086
:1034E00010FC13001C001000000000000E381144F6
:1034F0001084108411440E38000000000700088C6E
:1035000010441044088807F000000000000000008C
:10351000030C030C0000000000000000000000018C
:1035200001060000000000000000000000800140D3
:1035300002200410080810040000022002200220CB
:1035400002200220022002200000000010040808CF
:103550000410022001400080000000000E00120054
:10356000100C106C10800F00000003E00C1813E426
:10357000142417C4082807D000000004003C03C42A
:103580001C40074000E4001C000410041FFC110450
:10359000110411040E880070000003E00C181004E0
:1035A0001004100410081C10000010041FFC10046C
:1035B00010041004080807F0000010041FFC110498
:1035C000110417C410040818000010041FFC110493
:1035D000110017C010000800000003E00C181004D0
:1035E000100410441C780040000010041FFC1084DC
:1035F0000080008010841FFC1004000010041004E0
:103600001FFC100410040000000000030001100162
:1036100010011FFE10001000000010041FFC110418
:1036200003801464181C1004000010041FFC100414
:10363000000400040004000C000010041FFC1F0024
:1036400000FC1F001FFC1004000010041FFC0C04F1
:10365000030000E010181FFC100007F00808100419
:1036600010041004080807F0000010041FFC108468
:103670001080108010800F00000007F00818102440
:103680001024101C080A07F2000010041FFC11048B
:10369000110011C011300E0C000400000E1C1104AA
:1036A0001084108410441C3800001800100010040E
:1036B0001FFC100410001800000010001FF8100478
:1036C0000004000410041FF8100010001E0011E098
:1036D000001C007013801C0010001FC0103C00E094
:1036E0001F0000E0103C1FC000001004180C16342E
:1036F00001C001C01634180C100410001C00130483
:1037000000FC13041C00100000000804101C1064CE
:10371000108413041C0410180000000000000000B6
:103720007FFE4002400240020000000030000C001A
:1037300003800060001C0003000000004002400203
:1037400040027FFE0000000000000000000020009A
:103750004000400040002000000000010001000186
:1037600000010001000100010001000040004000D4
:10377000200000000000000000000000009801246C
:1037800001440144014400FC000410001FFC0088B7
:10379000010401040088007000000000007000882F
:1037A000010401040104008800000000007000888A
:1037B0000104010411081FFC0004000000F801448A
:1037C00001440144014400C8000000000104010458
:1037D0000FFC1104110411001800000000D601298B
:1037E0000129012901C90106000010041FFC008401
:1037F00001000100010400FC0004000001041904A0
:1038000019FC000400040000000000000003000197
:103810000101190119FE0000000010041FFC002422
:10382000004001B4010C0104000000001004100469
:103830001FFC0004000400000000010401FC01045E
:10384000010001FC0104010000FC010401FC0084F2
:1038500001000100010400FC0004000000F8010464
:1038600001040104010400F80000010101FF0085CA
:10387000010401040088007000000000007000884E
:1038800001040104010501FF00010104010401FC20
:1038900000840104010001800000000000CC01242C
:1038A000012401240124019800000000010001000E
:1038B00007F80104010400000000010001F8000401
:1038C00000040004010801FC0004010001800170F3
:1038D000000C001001600180010001F0010C0030BB
:1038E00001C00030010C01F0010000000104018C56
:1038F00000740170018C010400000101018101715B
:10390000000E001801600180010000000184010C1C
:10391000013401440184010C00000000000000009B
:10392000000001003EFC40024002000000000000D8
:103930000000FFFF00000000000000004002400205
:103940003EFC01000000000000000000600080005C
:103950008000400040002000200000000000000027
:103960000000000000000000000000000000000057
:103970000000000000000000000000000000000047
:10398000000000000000000000000000000F803870
:103990000FFE380F8038000000000000000000001B
:1039A00000000000000000000100000600000C0004
:1039B000003800003100000600000C000038000054
:1039C0003000000000000000000061800067F80780
:1039D000F980006180006180006180006180006783
:1039E000F807F9800061800000000000000000007E
:1039F00001C0E003E0F00630080418081FFFFE04D1
:103A00000E080787F00381E000000000000001F0CD
:103A100000060C00040408060C7001F9C0000E003A
:103A2000003BE000EC18070808040C180003E00055
:103A300000000001E00007F003F818041C08041758
:103A40000807E1D003C0E00023B0003C08002008D4
:103A500000001000000000000001000031000032F2
:103A600000001C000000000000000000000000003A
:103A70000000000000000000000000000000000046
:103A8000000000000000000000007F0001FFC007F0
:103A900080F00C001810000420000200000000005C
:103AA000002000021000040C00180780F001FFC085
:103AB000007F000000000000000000000000000087
:103AC0000000000000004200006600006600003CAC
:103AD0000000180003FFC0001800003C0000660052
:103AE000006600004200000000000800000800001E
:103AF000080000080000080001FFC00008000008DE
:103B0000000008000008000008000000000000019C
:103B100000003100003200001C0000000000000026
:103B20000000000000000000000000000000000095
:103B3000000008000008000008000008000008005D
:103B4000000800000800000800000800000800004D
:103B500000000000000000000000380000380000F5
:103B6000380000000000000000000000000000001D
:103B700000000000000000000000000600001C0023
:103B80000070000180000E0000380000C000070037
:103B9000001C0000300000000000000000007F80DA
:103BA00001FFE00380700600180400080400080606
:103BB000001803807001FFE0007F8000000000001B
:103BC0000000000001000801000801000803FFF8E0
:103BD00007FFF800000800000800000800000000CF
:103BE000000000000001C03802C058040098040121
:103BF00018040218040418061C1803F81801E0F849
:103C000000000000000000000001C0E003C0F0045C
:103C1000000804080804080806180803F41801E757
:103C2000F00001E0000000000000000000000300C0
:103C3000000D000011000061000081080301080769
:103C4000FFF80FFFF8000108000108000000000065
:103C5000000000E007FCD00608080610080610085F
:103C6000061008061838060FF00607C0000000000E
:103C70000000000000003F8001FFE00384300208E4
:103C800018041008041008041008071810030FF097
:103C90000007C000000000000000000003C0000793
:103CA00000000600000600F80607F806180006E007
:103CB0000007000006000000000000000001E1E035
:103CC00003F7F0063410041808041808040C08045C
:103CD0000C0806161803F3F001C1E0000000000014
:103CE0000000F80003FC3003063804020804020850
:103CF0000402080404100308F001FFC0007F000064
:103D000000000000000000000000000000000000B3
:103D100000007038007038007038000000000000AB
:103D20000000000000000000000000000000000093
:103D3000000000000000301A00301C0000000000ED
:103D40000000000000000000000000000000000073
:103D500000080000140000220000410000808001E3
:103D600000400200200400100800080000000000CD
:103D7000000021000021000021000021000021009E
:103D8000002100002100002100002100002100008E
:103D900000000000000000000800080400100200FD
:103DA000200100400080800041000022000014003B
:103DB00000080000000000000003C00004C0000470
:103DC0000000080038080F380808380810000C30C8
:103DD0000007E00003C000000000000000003F807A
:103DE00000FFE0038070020F1006708804C0880492
:103DF0008308047F8802C09003012000FE40000079
:103E0000080000180001F8003E0801C20007020087
:103E100007E20000FE00001FC80001F800003800A3
:103E2000000804000807FFF807FFF8040808040862
:103E30000804080804080806180803F41801E7F045
:103E40000001E0000000000000003F8001FFE003EF
:103E50008070020018040008040008040008040030
:103E6000100600200780C000000004000807FFF8CB
:103E700007FFF80400080400080400080400180202
:103E8000001003807001FFE0007F8000000004004C
:103E90000807FFF807FFF8040808040808040808E2
:103EA000040808043E080400080600180100600029
:103EB000000004000807FFF807FFF80408080408DA
:103EC00000040800040800043E000600000600008C
:103ED000018000000000000000003F8001FFE003BF
:103EE0008070060018040008040208040208020397
:103EF000F00783F000020000020004000807FFF84A
:103F000007FFF80408080008000008000008000087
:103F1000080004080807FFF807FFF804000800007D
:103F20000000000004000804000804000807FFF86F
:103F300007FFF8040008040008040008000000005F
:103F4000000000000000000600000700000104005F
:103F50000104000104000307FFFE07FFFC0400004A
:103F600004000004000004000807FFF807FFF8043D
:103F70000C08001800003E0004C7800503C80600B6
:103F8000F804003804001800000804000807FFF8CF
:103F900007FFF804000800000800000800000800FF
:103FA0000008000008000018000060000000040085
:103FB0000807FFF807800807FC00007FC00003F82F
:103FC0000007C000780007800807FFF807FFF80423
:103FD000000804000807FFF807000803C00000E01D
:103FE00000003800001E000007000001C00400F0BF
:103FF00007FFF8040000000000007F8001FFE003DD
:104000008070060018040008040008060018030069
:104010003001FFE0007F8000000004000807FFF887
:1040200007FFF80404080404000404000404000466
:104030000400060C0003F80001F00000000000007E
:1040400000007F8001FFE003807006008804008884
:104050000400C806003C03003E01FFE6007F840028
:10406000000004000807FFF807FFF8040808040828
:1040700000040C00040F00040BC00610F003F0381D
:1040800001E00800000800000001E0F803F030063D
:104090003010041808041808040C08040C08020660
:1040A000180207F00781E000000001800006000010
:1040B00004000004000004000807FFF807FFF804EC
:1040C0000008040000040000060000018000040055
:1040D0000007FFE007FFF0040018000008000008D8
:1040E00000000800000800000804001007FFE004BA
:1040F000000004000006000007E00007FE00041FA7
:10410000E00001F80000380001E0043E0007C000B4
:1041100006000004000004000007E00007FFC004E0
:104120001FF80007C007F80007FF80043FF80007EA
:10413000C004F800070000040000000000040008AC
:1041400006001807C07805F1C8003E00001F800473
:1041500063E80780F8060018040008000000040067
:104160000006000007800007E008047C08001FF834
:104170000007F800180804E0080700000600000423
:1041800000000000000100080600380400F80403E5
:10419000E8040F08047C0805F00807C008070018A9
:1041A00004006000000000000000000000000000AB
:1041B00000000000003FFFFE20000220000220005F
:1041C00002200002200002000000000000000000A9
:1041D00008000007000000C00000380000060000D2
:1041E00001C000003000000E0000010000000000CF
:1041F0000000000020000220000220000220000237
:104200002000023FFFFE0000000000000000000050
:104210000000000000000000000000080000100086
:1042200000300000200000300000100000080000F6
:10423000000000000000000001000001000001007B
:104240000001000001000001000001000001000069
:10425000010000010000010000010000000000005A
:1042600000000020000020000010000010000000EE
:10427000000000000000000000000000000000003E
:10428000000000F00019F8001B18002208002608A2
:10429000002408002410003FF8001FF80000080068
:1042A000001800000004000007FFF80FFFF00018DE
:1042B00018001008002008002008003018001FF027
:1042C000000FC00000000000000007C0001FF00049
:1042D0001830002008002008002008003C08001CBE
:1042E000100000600000000000000000000007C097
:1042F000001FF000381800200800200800200804E3
:10430000101007FFF80FFFF0000010000000000081
:10431000000000000007C0001FF00012300022184B
:10432000002208002208003208001E10000E2000A3
:10433000000000000000200000200800200801FF0D
:10434000F803FFF8062008042008042008072000CE
:1043500003000000000000000000000E000E6E00D0
:104360001FF30031B10020B10020B1003191001FD6
:1043700013002E1E00200E00300000000004000874
:1043800007FFF80FFFF800100800200000200000D1
:104390002008003FF8001FF800000800000000009F
:1043A00000000000002008002008002008063FF858
:1043B000063FF800000800000800000800000000A8
:1043C00000000000000000000000030000030020C7
:1043D00001002001002003063FFE063FFC00000014
:1043E00000000000000000000004000807FFF80FB4
:1043F000FFF8000188000300002FC00038F80020FB
:104400003800200800000800000000000000000044
:1044100004000804000804000807FFF80FFFF80074
:104420000008000008000008000000000000002054
:1044300008003FF8003FF8001008002000003FF897
:10444000003FF8001008002000003FF8003FF8008F
:104450000008000000002008003FF8003FF80010AE
:1044600008001000002000002008003FF8001FF89E
:104470000000080000000000000007C0000FF0006E
:10448000183000300800200800200800300800180C
:1044900030000FF00007C000000000000000200105
:1044A000003FFF003FFF001011002009002008001E
:1044B0002008003038001FF0000FC000000000008E
:1044C000000007C0001FF000381800200800200876
:1044D000002009001011001FFF003FFF0000010035
:1044E0000000002008002008002008003FF8003FDE
:1044F000F800080800100800200800200000300024
:10450000003000000000000000000000000C7800F7
:104510001E1800330800230800210800218800210C
:10452000980030F00038600000000000000020001B
:1045300000200000200000FFF003FFF8002008002A
:1045400020080020080000300000000000000000EB
:1045500000002000003FF0007FF800001800000875
:10456000000008002010003FF8007FF0000010005D
:104570000000000000002000003000003C00003F70
:10458000800023F0000078000070002380003C00D1
:10459000003000002000002000003C00003FE00050
:1045A00023F80000E0002700003E00003FE000216B
:1045B000F80001E0003E000020000000000020089C
:1045C000002008003838003E680027800003C8003B
:1045D0002CF80038380020180020080000000000E7
:1045E00000002000003003003C01003F830023EC6A
:1045F000000070002380003C00002000002000002C
:1046000000000000000000000038080020380020F2
:10461000F80023E8002F88003E0800380800201822
:10462000000070000000000000000000000000001A
:1046300000000000000008000014001FF7FC30001C
:104640000620000200000000000000000000000042
:10465000000000000000000000000000FFFFFF005D
:10466000000000000000000000000000000000004A
:10467000000000002000023000061FF7FC001400BC
:104680000008000000000000000000000000000022
:104690000000000000180000600000400000400022
:1046A00000200000100000080000040000040000CA
:1046B0000C00001000000000D84600080000002098
:1046C000380000006C010008104700083800002086
:1046D00060060000880100080A0A14140A0000009D
:1046E00002000000F0001603F0000A0064006400FD
:1046F00064006400000000000000000000000000F2
:1047000001050A0000000000640000000000000035
:04000005080001CD21
:00000001FF
